:100000000C9462000C948A000C948A000C948A0070
:100010000C948A000C948A000C948A000C948A0038
:100020000C948A000C948A000C948A000C948A0028
:100030000C948A000C948A000C948A000C948A0018
:100040000C94D5020C948A000C94A3020C947D02AB
:100050000C948A000C948A000C948A000C948A00F8
:100060000C948A000C948A000000000024002700F1
:100070002A000000000023002600290000000000E4
:10008000250028002B0004040404040404040202D4
:100090000202020203030303030301020408102007
:1000A0004080010204081020010204081020000012
:1000B0000008000201000003040700000000000027
:1000C00000009C0411241FBECFEFD8E0DEBFCDBFDF
:1000D00011E0A0E0B1E0ECE5FCE002C005900D927B
:1000E000A431B107D9F721E0A4E1B1E001C01D922C
:1000F000A23CB207E1F710E0C2E6D0E004C02197CD
:10010000FE010E94EB04C136D107C9F70E946403C7
:100110000C942C060C940000E7EBF0E02491E3EA49
:10012000F0E09491EFE8F0E0E491EE2309F43BC0B5
:10013000222339F1233091F038F42130A9F0223014
:1001400001F524B52F7D12C0273091F02830A1F0A1
:100150002430B9F4209180002F7D03C020918000CD
:100160002F77209380000DC024B52F7724BD09C0C0
:100170002091B0002F7703C02091B0002F7D2093F5
:10018000B000F0E0EE0FFF1FE458FF4FA591B491CF
:100190002FB7F894EC91811103C090959E2301C074
:1001A0009E2B9C932FBF0895CF92DF92EF92FF92E8
:1001B0000F931F93CF93DF936C017A018B01C0E003
:1001C000D0E0CE15DF0589F0D8016D918D01D60103
:1001D000ED91FC910190F081E02DC6010995892BEC
:1001E00011F47E0102C02196ECCFC701DF91CF91BF
:1001F0001F910F91FF90EF90DF90CF900895FC0139
:10020000918D828D981761F0828DDF01A80FB11D4D
:100210005D968C91928D9F5F9F73928F90E0089571
:100220008FEF9FEF0895FC01918D828D981731F02B
:10023000828DE80FF11D858D90E008958FEF9FEF7F
:100240000895FC01918D228D892F90E0805C9F4F55
:10025000821B91098F739927089585E291E00E948E
:10026000210121E0892B09F420E0822F0895FC016F
:10027000848DDF01A80FB11DA35ABF4F2C91848D2F
:1002800090E001968F739927848FA689B7892C9364
:10029000A089B1898C9180648C93938D848D9813FF
:1002A00006C00288F389E02D80818F7D80830895C8
:1002B000EF92FF920F931F93CF93DF93EC0181E0B6
:1002C000888F9B8D8C8D981305C0E889F989808172
:1002D00085FD24C0F62E0B8D10E00F5F1F4F0F73AE
:1002E0001127E02E8C8DE8120CC00FB607FCFACF58
:1002F000E889F989808185FFF5CFCE010E94370119
:10030000F1CF8B8DFE01E80FF11DE35AFF4FF08214
:100310000B8FEA89FB898081806207C0EE89FF89A3
:100320006083E889F98980818064808381E090E03E
:10033000DF91CF911F910F91FF90EF900895CF9390
:10034000DF93EC01888D8823C9F0EA89FB898081DD
:1003500085FD05C0A889B9898C9186FD0FC00FB6AF
:1003600007FCF5CF808185FFF2CFA889B9898C91F0
:1003700085FFEDCFCE010E943701E7CFDF91CF910E
:10038000089580E090E0892B29F00E942D018111D1
:100390000C94000008953FB7F89480911901909152
:1003A0001A01A0911B01B0911C0126B5A89B05C0A4
:1003B0002F3F19F00196A11DB11D3FBFBA2FA92FE4
:1003C000982F8827820F911DA11DB11DBC01CD0161
:1003D00042E0660F771F881F991F4A95D1F708954D
:1003E0008F929F92AF92BF92CF92DF92EF92FF9245
:1003F0006B017C010E94CB014B015C01C114D10453
:10040000E104F104F1F00E94CB01DC01CB01881979
:100410009909AA09BB09883E9340A105B10570F36B
:1004200021E0C21AD108E108F10888EE880E83E0C5
:10043000981EA11CB11CC114D104E104F10419F7E8
:10044000DDCFFF90EF90DF90CF90BF90AF909F9067
:100450008F9008958F929F92AF92BF920F931F93A8
:10046000CF93DF93CDB7DEB7A1970FB6F894DEBF79
:100470000FBECDBF19A2423008F44AE08E010F5DD5
:100480001F4F842E912CA12CB12CA50194010E9408
:10049000C904E62FB901CA0101501109EA3014F468
:1004A000E05D01C0E95CD801EC93232B242B252BC4
:1004B00061F70115110571F0F80101900020E9F7CD
:1004C0003197AF01401B510BB80185E291E00E94CA
:1004D000D40002C080E090E0A1960FB6F894DEBF91
:1004E0000FBECDBFDF91CF911F910F91BF90AF9005
:1004F0009F908F9008950E9427061F920F920FB62B
:100500000F9211242F933F934F935F936F937F9399
:100510008F939F93AF93BF93EF93FF9385E291E007
:100520000E943701FF91EF91BF91AF919F918F9101
:100530007F916F915F914F913F912F910F900FBEDF
:100540000F901F9018951F920F920FB60F921124C3
:100550002F938F939F93EF93FF93E0913501F09149
:1005600036018081E0913B01F0913C0182FD12C097
:10057000908180913E018F5F8F7320913F018217A0
:1005800051F0E0913E01F0E0EB5DFE4F958F8093DE
:100590003E0101C08081FF91EF919F918F912F913A
:1005A0000F900FBE0F901F9018951F920F920FB6CD
:1005B0000F9211242F933F938F939F93AF93BF93E9
:1005C0008091150190911601A0911701B091180129
:1005D0003091140123E0230F2D3720F40196A11D43
:1005E000B11D05C026E8230F0296A11DB11D209361
:1005F00014018093150190931601A0931701B093F5
:1006000018018091190190911A01A0911B01B091DC
:100610001C010196A11DB11D8093190190931A012F
:10062000A0931B01B0931C01BF91AF919F918F913B
:100630003F912F910F900FBE0F901F901895CF9262
:10064000DF92EF92FF920F931F93E82FF92F05C0CF
:10065000015011092109310961F190819623941704
:10066000B9F305C0015011092109310911F1908137
:1006700096239413F7CFC12CD12CE12CF12C0AC076
:100680008FEFC81AD80AE80AF80A0C151D052E05BE
:100690003F0579F080818623841791F36C2D7D2DA1
:1006A0008E2D9F2D1F910F91FF90EF90DF90CF9097
:1006B000089560E070E080E090E01F910F91FF905E
:1006C000EF90DF90CF900895789484B5826084BDD8
:1006D00084B5816084BD85B5826085BD85B5816046
:1006E00085BD80916E00816080936E0010928100C4
:1006F000809181008260809381008091810081607F
:10070000809381008091800081608093800080913F
:10071000B10084608093B1008091B00081608093CB
:10072000B00080917A00846080937A0080917A0092
:10073000826080937A0080917A00816080937A0051
:1007400080917A00806880937A001092C100E091D5
:100750003501F091360182E08083E0913101F09122
:1007600032011082E0913301F09134018FEC8083EB
:1007700010923D01E0913901F0913A0186E08083C9
:10078000E0913701F0913801808180618083E091B0
:100790003701F0913801808188608083E0913701D2
:1007A000F0913801808180688083E0913701F09179
:1007B000380180818F7D8083E3EAF0E02491EFE8C7
:1007C000F0E08491882399F090E0880F991FFC0154
:1007D000E859FF4FA591B491FC01E458FF4F859172
:1007E00094918FB7F894EC91E22BEC938FBFE2EAEF
:1007F000F0E02491EEE8F0E084918823C1F090E0ED
:10080000880F991FFC01E859FF4FC591D491FC0155
:10081000E458FF4FA591B4919FB7F8948881E22FD7
:10082000E0958E2388838C91E823EC939FBFC2EAE6
:10083000D0E09EE8E92E90E0F92E80E00E948C0046
:100840006AE070E080E090E00E94F00181E00E94A8
:100850008C0062E370E080E090E00E94F00180E0B4
:100860000E948C00FE016491F701249130E0220F78
:10087000331F2E583F4FF9018591949100E412E403
:100880002FE030E0462F0E941F036115710581059E
:10089000910549F0DC01CB010196A11DB11DBC0100
:1008A000CD019F7003C060E070E0CB016093210137
:1008B0007093220180932301909324010E949B0551
:1008C0002DEC3CEC48E652E40E94F1040E946305E2
:1008D0004B015C0160931D0170931E0180931F0109
:1008E0009093200197FF14C0E0912501F09126011B
:1008F0000190F081E02D6DE285E291E00995662797
:100900007727CB01681979098A099B094AE001C058
:100910004AE00E942A0242E050E060E171E085E294
:1009200091E00E94D40062E370E080E090E00E94D9
:10093000F0010E94C10181CFE5E2F1E01382128251
:1009400088EE93E0A0E0B0E084839583A683B7832C
:1009500084E091E09183808385EC90E095878487A3
:1009600084EC90E09787868780EC90E0918B808B79
:1009700081EC90E0938B828B82EC90E0958B848B62
:1009800086EC90E0978B868B118E128E138E148ED0
:100990000895A1E21A2EAA1BBB1BFD010DC0AA1FC0
:1009A000BB1FEE1FFF1FA217B307E407F50720F0D8
:1009B000A21BB30BE40BF50B661F771F881F991F53
:1009C0001A9469F760957095809590959B01AC019C
:1009D000BD01CF010895EE0FFF1F0590F491E02DAA
:1009E00009940E9405050C94ED050E94E60558F057
:1009F0000E94DF0540F029F45F3F29F00C94D605F2
:100A000051110C9421060C94DC050E94FE0568F33C
:100A10009923B1F3552391F3951B550BBB27AA27B7
:100A200062177307840738F09F5F5F4F220F331FF1
:100A3000441FAA1FA9F335D00E2E3AF0E0E832D0B9
:100A400091505040E695001CCAF72BD0FE2F29D0BC
:100A5000660F771F881FBB1F261737074807AB078E
:100A6000B0E809F0BB0B802DBF01FF2793585F4F03
:100A70003AF09E3F510578F00C94D6050C9421066F
:100A80005F3FE4F3983ED4F3869577956795B795E5
:100A9000F7959F5FC9F7880F911D9695879597F9F0
:100AA0000895E1E0660F771F881FBB1F6217730769
:100AB0008407BA0720F0621B730B840BBA0BEE1F7E
:100AC00088F7E09508950E946A056894B1110C9426
:100AD000210608950E94060688F09F5798F0B92FC6
:100AE0009927B751B0F0E1F0660F771F881F991F63
:100AF0001AF0BA95C9F714C0B13091F00E942006DF
:100B0000B1E008950C942006672F782F8827B85FEE
:100B100039F0B93FCCF3869577956795B395D9F7BA
:100B20003EF490958095709561957F4F8F4F9F4FC4
:100B30000895E89409C097FB3EF4909580957095D0
:100B400061957F4F8F4F9F4F9923A9F0F92F96E919
:100B5000BB279395F695879577956795B795F1118E
:100B6000F8CFFAF4BB0F11F460FF1BC06F5F7F4F2B
:100B70008F4F9F4F16C0882311F096E911C077233D
:100B800021F09EE8872F762F05C0662371F096E846
:100B9000862F70E060E02AF09A95660F771F881F15
:100BA000DAF7880F9695879597F9089597F99F67D3
:100BB00080E870E060E008959FEF80EC08950024E5
:100BC0000A941616170618060906089500240A94B2
:100BD00012161306140605060895092E0394000C38
:100BE00011F4882352F0BB0F40F4BF2B11F460FFC7
:100BF00004C06F5F7F4F8F4F9F4F089557FD9058F0
:100C0000440F551F59F05F3F71F04795880F97FBD0
:100C1000991F61F09F3F79F087950895121613068A
:100C20001406551FF2CF4695F1DF08C016161706B9
:100C30001806991FF1CF86957105610508940895EE
:100C4000E894BB2766277727CB0197F9089581E0C1
:0C0C500090E0F8940C942C06F894FFCF70
:100C5C00000000005801D4002101FF0013019F0186
:040C6C000D0A00006D
:107E0000112484B714BE81FFF0D085E080938100F7
:107E100082E08093C00088E18093C10086E0809377
:107E2000C20080E18093C4008EE0C9D0259A86E02C
:107E300020E33CEF91E0309385002093840096BBD3
:107E4000B09BFECF1D9AA8958150A9F7CC24DD24C4
:107E500088248394B5E0AB2EA1E19A2EF3E0BF2EE7
:107E6000A2D0813461F49FD0082FAFD0023811F036
:107E7000013811F484E001C083E08DD089C08234E0
:107E800011F484E103C0853419F485E0A6D080C0E4
:107E9000853579F488D0E82EFF2485D0082F10E0AE
:107EA000102F00270E291F29000F111F8ED06801E7
:107EB0006FC0863521F484E090D080E0DECF843638
:107EC00009F040C070D06FD0082F6DD080E0C81688
:107ED00080E7D80618F4F601B7BEE895C0E0D1E017
:107EE00062D089930C17E1F7F0E0CF16F0E7DF06D8
:107EF00018F0F601B7BEE89568D007B600FCFDCFD4
:107F0000A601A0E0B1E02C9130E011968C91119780
:107F100090E0982F8827822B932B1296FA010C0160
:107F200087BEE89511244E5F5F4FF1E0A038BF0790
:107F300051F7F601A7BEE89507B600FCFDCF97BE46
:107F4000E89526C08437B1F42ED02DD0F82E2BD052
:107F50003CD0F601EF2C8F010F5F1F4F84911BD097
:107F6000EA94F801C1F70894C11CD11CFA94CF0C13
:107F7000D11C0EC0853739F428D08EE10CD085E9AC
:107F80000AD08FE07ACF813511F488E018D01DD067
:107F900080E101D065CF982F8091C00085FFFCCF94
:107FA0009093C60008958091C00087FFFCCF809118
:107FB000C00084FD01C0A8958091C6000895E0E648
:107FC000F0E098E1908380830895EDDF803219F02E
:107FD00088E0F5DFFFCF84E1DECF1F93182FE3DFCA
:107FE0001150E9F7F2DF1F91089580E0E8DFEE27F6
:047FF000FF270994CA
:027FFE00040479
:0400000300007E007B
:00000001FF
