:100000000C945D000C9485000C9485000C94850084
:100010000C9485000C9485000C9485000C9485004C
:100020000C9485000C9485000C9485000C9485003C
:100030000C9485000C9485000C9485000C9485002C
:100040000C947C020C9485000C944A020C942402BB
:100050000C9485000C9485000C9485000C9485000C
:100060000C9485000C9485000000000024002700FB
:100070002A0000000000250028002B0004040404CE
:100080000404040402020202020203030303030342
:10009000010204081020408001020408102001021F
:1000A00004081020000000080002010000030407FB
:1000B0000000000000000000660311241FBECFEF07
:1000C000D8E0DEBFCDBF11E0A0E0B1E0E0E4F7E0B2
:1000D00002C005900D92A031B107D9F721E0A0E14F
:1000E000B1E001C01D92A63BB207E1F710E0CDE5FB
:1000F000D0E004C02197FE010E949303CC35D107C4
:10010000C9F70E94C6020C949E030C940000E1EB18
:10011000F0E02491EDE9F0E09491E9E8F0E0E49179
:10012000EE2309F43BC0222339F1233091F038F457
:100130002130A9F0223001F524B52F7D12C02730DF
:1001400091F02830A1F02430B9F4209180002F7D67
:1001500003C0209180002F77209380000DC024B52C
:100160002F7724BD09C02091B0002F7703C02091C4
:10017000B0002F7D2093B000F0E0EE0FFF1FEE588F
:10018000FF4FA591B4912FB7F894EC91811103C062
:1001900090959E2301C09E2B9C932FBF0895CF92D4
:1001A000DF92EF92FF920F931F93CF93DF936C0137
:1001B0007A018B01C0E0D0E0CE15DF0589F0D801CF
:1001C0006D918D01D601ED91FC910190F081E02DB2
:1001D000C6010995892B11F47E0102C02196ECCF4E
:1001E000C701DF91CF911F910F91FF90EF90DF90AA
:1001F000CF900895FC01918D828D981761F0828DCA
:10020000DF01A80FB11D5D968C91928D9F5F9F734A
:10021000928F90E008958FEF9FEF0895FC01918DEC
:10022000828D981731F0828DE80FF11D858D90E059
:1002300008958FEF9FEF0895FC01918D228D892FF6
:1002400090E0805C9F4F821B91098F7399270895DE
:1002500089E191E00E941C0121E0892B09F420E052
:10026000822F0895FC01848DDF01A80FB11DA35AD0
:10027000BF4F2C91848D90E001968F739927848FC6
:10028000A689B7892C93A089B1898C9180648C93BD
:10029000938D848D981306C00288F389E02D8081A8
:1002A0008F7D80830895EF92FF920F931F93CF93DA
:1002B000DF93EC0181E0888F9B8D8C8D981305C0B6
:1002C000E889F989808185FD24C0F62E0B8D10E028
:1002D0000F5F1F4F0F731127E02E8C8DE8120CC09B
:1002E0000FB607FCFACFE889F989808185FFF5CF41
:1002F000CE010E943201F1CF8B8DFE01E80FF11D7E
:10030000E35AFF4FF0820B8FEA89FB89808180627C
:1003100007C0EE89FF896083E889F989808180645C
:10032000808381E090E0DF91CF911F910F91FF904A
:10033000EF900895CF93DF93EC01888D8823C9F067
:10034000EA89FB89808185FD05C0A889B9898C91DE
:1003500086FD0FC00FB607FCF5CF808185FFF2CF79
:10036000A889B9898C9185FFEDCFCE010E94320119
:10037000E7CFDF91CF91089580E090E0892B29F0BD
:100380000E94280181110C94000008953FB7F89451
:100390008091150190911601A0911701B09118015B
:1003A00026B5A89B05C02F3F19F00196A11DB11DD0
:1003B0003FBFBA2FA92F982F8827820F911DA11D0B
:1003C000B11DBC01CD0142E0660F771F881F991F48
:1003D0004A95D1F708958F929F92AF92BF92CF9294
:1003E000DF92EF92FF920E94C6014B015C0182E313
:1003F000C82ED12CE12CF12C0E94C601DC01CB01CE
:1004000088199909AA09BB09883E9340A105B1053D
:1004100058F021E0C21AD108E108F10888EE880EF0
:1004200083E0981EA11CB11CC114D104E104F104A5
:1004300019F7FF90EF90DF90CF90BF90AF909F9013
:100440008F9008950E9499031F920F920FB60F92FA
:1004500011242F933F934F935F936F937F938F93C9
:100460009F93AF93BF93EF93FF9389E191E00E9435
:100470003201FF91EF91BF91AF919F918F917F9149
:100480006F915F914F913F912F910F900FBE0F9001
:100490001F9018951F920F920FB60F9211242F9351
:1004A0008F939F93EF93FF93E0912901F0912A019D
:1004B0008081E0912F01F091300182FD12C0908186
:1004C000809132018F5F8F7320913301821751F039
:1004D000E0913201F0E0E75EFE4F958F80933201AC
:1004E00001C08081FF91EF919F918F912F910F908B
:1004F0000FBE0F901F9018951F920F920FB60F927C
:1005000011242F933F938F939F93AF93BF93809129
:10051000110190911201A0911301B0911401309139
:10052000100123E0230F2D3720F40196A11DB11DEA
:1005300005C026E8230F0296A11DB11D20931001CE
:100540008093110190931201A0931301B0931401B1
:100550008091150190911601A0911701B091180199
:100560000196A11DB11D8093150190931601A093D2
:100570001701B0931801BF91AF919F918F913F9157
:100580002F910F900FBE0F901F901895789484B5FF
:10059000826084BD84B5816084BD85B5826085BD7F
:1005A00085B5816085BD80916E00816080936E000D
:1005B00010928100809181008260809381008091FF
:1005C00081008160809381008091800081608093B0
:1005D00080008091B10084608093B1008091B00070
:1005E00081608093B00080917A00846080937A006B
:1005F00080917A00826080937A0080917A00816095
:1006000080937A0080917A00806880937A001092BB
:10061000C100EDE9F0E02491E9E8F0E0849188235D
:1006200099F090E0880F991FFC01E859FF4FA591C0
:10063000B491FC01EE58FF4F859194918FB7F894D7
:10064000EC91E22BEC938FBFE0912901F0912A010C
:1006500082E08083E0912501F09126011082E091F3
:100660002701F09128018FEC808310923101E091F5
:100670002D01F0912E0186E08083E0912B01F09115
:100680002C01808180618083E0912B01F0912C010D
:10069000808188608083E0912B01F0912C01808122
:1006A00080688083E0912B01F0912C0180818F7D07
:1006B000808381E00E9487000E94EB0180E00E941D
:1006C00087000E94EB010E94BC01F3CFE9E1F1E059
:1006D0001382128288EE93E0A0E0B0E084839583D9
:1006E000A683B78384E091E09183808385EC90E0DA
:1006F0009587848784EC90E09787868780EC90E0EC
:10070000918B808B81EC90E0938B828B82EC90E0DC
:10071000958B848B86EC90E0978B868B118E128E56
:10072000138E148E0895EE0FFF1F0590F491E02DA7
:10073000099481E090E0F8940C949E03F894FFCF24
:10074000000000005301CF001C01FA000E019A01C5
:00000001FF
